:100000000C94FB030C9442040C9442040C944204A0
:100010000C9442040C9442040C9442040C94420448
:100020000C9442040C9442040C94B72C0C948B2D29
:100030000C946E260C9442040C9442040C944204DA
:100040000C9442040C9442040C9442040C94420418
:100050000C9442040C94C5260C9442040C94420463
:100060000C9442040C9442040C9442040C944204F8
:100070000C9442040C9442040C9442040C944204E8
:100080000C9442040C9442040C9442040C944204D8
:100090000C9442040C9442040C9442040C944204C8
:1000A0000C9442040C9442040C94420400003B0063
:1000B0003D003F004100430045004700000029008B
:1000C0003A003C003E004000420044004600480028
:1000D0001E0020002200240026002D002A004A00D5
:1000E000000035001F0021002300250027002E00FE
:1000F00049004B00140008001700180012002F00E0
:1001000031004D0000002B001A0015001C000C00EF
:10011000130030004C004E00040007000A000D00E0
:100120000F0034002800000000003900160009000C
:100130000B000E00330032000000000064001B00C2
:100140001900110036003800E50052000000E100FF
:100150001D00060005001000370000000000000030
:10016000E30000000000000000000000E400510077
:100170000000E000E20000002C000000E600E700C4
:1001800050004F00000001000100C35CC55CC75C6B
:10019000C95CBD5C0000010001000100C25CC65CDE
:1001A000C85CCA5CBF5CBE5C0100010001000100CC
:1001B0000100010001000100000001000100010038
:1001C00001000100010001000100A900010001007F
:1001D00001000100010001000100AB00000001006E
:1001E0000100005C0100010001000100AE00AA0056
:1001F00001000100010001000100010001000000F8
:1002000000000100010001000100010001000100E7
:1002100000000000010001000100010001000100D8
:1002200001000100000001000100010001000100C7
:1002300001000000000000000100000000000000BC
:1002400000000000010001000000010001000000AA
:100250000100000001000100010001000000010098
:1002600001000100010001000100BD5C000001006F
:10027000010001000100010001000100BF5CBE5C43
:100280000100010001000100010001000100010066
:100290000000010001000100010001000100010057
:1002A0000100A9000100010001000100010001009E
:1002B0000100AB000000010001000100010001008D
:1002C00001000100AE00AA000100010001000100D0
:1002D0000100010001000000000001000100010018
:1002E0000100010001000100000000000100010008
:1002F00001000100010001000100010000000100F7
:1003000001000100010001000100000000000000E8
:1003100001000000000000000000000001000100DA
:1003200000000100010000000100000001000100C8
:100330000100010000000000000000002A2B28003E
:100340000000000000000000000000000000002984
:10035000000000002C1E3420212224342627252EC4
:10036000362D3738271E1F202122232425263333FC
:10037000362E37381F0405060708090A0B0C0D0E28
:100380000F101112131415161718191A1B1C1D2FF4
:100390003130232D350405060708090A0B0C0D0E14
:1003A0000F101112131415161718191A1B1C1D2FD4
:1003B0003130354C0000000000000000000000005B
:1003C000000000000000000000000000000000002D
:1003D00000000000000000007E0F00D4FFFFFFC7F8
:1003E000000000781E0F0500047F3F1F6432146474
:1003F0003214783C1E1E140A052223252628292A99
:100400002C2D2F3032333536383A3B3D3E40424377
:100410004547494A4C4E5051535557595A5C5E60B6
:1004200062646668696B6D6F71737577797B7D7FC8
:1004300081838587898A8C8E90929496989A9C9EC7
:100440009FA1A3A5A7A8AAACAEAFB1B3B4B6B8B9E3
:10045000BBBCBEBFC1C2C3C5C6C7C9CACBCCCDCE4B
:10046000D0D1D2D2D3D4D5D6D7D7D8D9D9DADADB2E
:10047000DBDBDCDCDCDCDCDDDDDDDDDCDCDCDCDCBA
:10048000DBDBDBDADAD9D9D8D7D7D6D5D4D3D2D2F9
:10049000D1D0CECDCCCBCAC9C7C6C5C3C2C1BFBEE1
:1004A000BCBBB9B8B6B4B3B1AFAEACAAA8A7A5A34C
:1004B000A19F9E9C9A98969492908E8C8A8987850B
:1004C00083817F7D7B79777573716F6D6B696866EA
:1004D0006462605E5C5A5957555351504E4C4A49BC
:1004E00047454342403E3D3B3A3836353332302F64
:1004F0002D2C2A292826252322FFAA7F55400001DA
:1005000001010101010101010202020202020202D3
:1005100002030303030303030304040404040404A5
:100520000505050505060606060607070707070869
:10053000080808090909090A0A0A0B0B0B0C0C0C1C
:100540000D0D0D0E0E0E0F0F0F10101111111212B6
:1005500013131414151516161717181819191A1A33
:100560001B1B1C1D1D1E1E1F202021222223242494
:10057000252626272829292A2B2C2D2D2E2F3031D0
:100580003232333435363738393A3B3C3D3E3F40E2
:100590004142434445464748494A4C4D4E4F5051CD
:1005A0005354555658595A5B5D5E5F616264656687
:1005B00068696B6C6D6F7072737577787A7B7D7E0E
:1005C0008082838587888A8C8E8F91939596989A5E
:1005D0009C9EA0A2A3A5A7A9ABADAFB1B3B5B7BA76
:1005E000BCBEC0C2C4C6C9CBCDCFD1D4D6D8DBDD4A
:1005F000DFE2E4E7E9EBEEF0F3F5F8FAFDFF1203D2
:1006000048006F006F00640072006F0077004700C1
:1006100000001603430061006E006E006F006E0064
:100620004B0065007900730000000403090409020F
:100630007B00040100A0FA0904000001030101008D
:100640000921110100012240000705810308000A69
:100650000904010002030000000921110100012228
:100660002200070582032000010705030320000183
:100670000904020001030000000921110100012208
:10068000B6000705840320000A09040300020300E2
:100690000000092111010001222200070585032025
:1006A00000010705050320000112010002000000FF
:1006B0000804CA06000100010200010631FF0974A6
:1006C000A1010975150026FF009520750881020912
:1006D00076150026FF00952075089102C00660FF80
:1006E0000961A1010962150026FF009520750881A6
:1006F000020963150026FF00952075089102C005C8
:10070000010902A10185020901A1000509190129B8
:1007100008150025019508750181020501093009B8
:10072000311581257F9502750881060938158125C7
:100730007F950175088106050C0A38021581257F11
:10074000950175088106C0C005010980A1018503D6
:1007500019012AB700150126B7009501751081000F
:10076000C0050C0901A101850419012AA002150187
:1007700026A002950175108100C005010906A1019E
:100780008506050719E029E715002501950875017B
:1007900081020507190029EF1500250195F0750163
:1007A0008102050819012905950575019102950138
:1007B00075039101C005010906A101050719E0298A
:1007C000E7150025019508750181029501750881DD
:1007D000010507190029FF150026FF009506750879
:1007E00081000508190129059505750191029501FA
:1007F00075039101C00011241FBECFEFDAE0DEBF08
:10080000CDBF04B603FE27C08091AC039091AD0329
:10081000A091AE03B091AF038730904BA740B04B8F
:10082000D1F41092AC031092AD031092AE0310926B
:10083000AF0314BE84B7877F84BF0FB6F894A89522
:1008400080916000886180936000109260000FBE0C
:10085000E0E0F8E3099511E0A0E0B1E0E4EDF1E6B5
:1008600002C005900D92A63EB107D9F723E0A6EE8F
:10087000B1E001C01D92AC3AB207E1F70E94B71493
:100880000C94AD300C94000081E0089581E008954F
:100890000C94460408950C944A041F93CF93DF935D
:1008A00000D000D00F92CDB7DEB749835A836B8357
:1008B0003091E80189819A8131111DC06623B9F018
:1008C0002223A9F00E94DD0A182F682F89819A81BE
:1008D0000E94890A69817A81812F0F900F900F9071
:1008E0000F900F90DF91CF911F910C9434230E94B1
:1008F000B50A182FEFCF0E94DD0A69817A81EDCF0A
:10090000FC01262F408151816281738184810C9486
:100910004D0481E00895CF93DF93EC0160E00E94E5
:100920008004BE01DF91CF910C944B04E1E0F0E034
:10093000DF0102C0AA0FBB1F6A95E2F7BD01DF010C
:1009400002C0AA0FBB1F4A95E2F76A2B01C0EE0F47
:100950002A95EAF7962F9823961302C08E2B0895B6
:10096000E0958E230895242F462F682F809113023F
:100970000E9496040C94460A0E943D130E9417069A
:100980000C9458130C945B1380E00C941806089593
:1009900008950E94DE090E94C8042FEF84E39CE0C2
:1009A000215080409040E1F700C000000C94E926FF
:1009B0000F931F93CF93DF938C0161E00E9480041B
:1009C000EC01B8010E94F11F882309F441C0B8016D
:1009D000CE010E9448048823D9F1B801CE010E94BB
:1009E00095248823A9F1B801CE010E9442218823D1
:1009F00079F1B801CE010E94FF23882349F1B801A3
:100A0000CE010E94A11E882319F1F801828188235A
:100A100061F0CA35FDE5DF0721F170F4C115ECE5A1
:100A2000DE07A1F0CE3DDC45C9F0C801DF91CF91D2
:100A30001F910F910C944404CB358DE5D807A1F09C
:100A4000CC35DD4591F70E94750FEFCF0E94C904A8
:100A500080E0DF91CF911F910F9108950E942E1099
:100A6000F7CF0E947E0FE1CF0E94810FDECF0C9462
:100A7000C7040E94F1240E9418060C943705DF92E7
:100A8000EF92FF920F931F93CF93DF93E82FF0E045
:100A9000EC5CFC4FD490282F26952695269530E0C7
:100AA000F901EC52FC4F0491877010E0082E02C04F
:100AB000159507950A94E2F701701127F901EC5397
:100AC000FC4FE490F12C082E02C0F594E7940A94B0
:100AD000E2F791E0E922FF24F901EC54FC4FC491C4
:100AE000D0E002C0D595C7958A95E2F7C170DD27A1
:100AF0000115110519F081EE0E946306E114F1045D
:100B000019F086EE0E9463068D2D0E946207EF2881
:100B100019F086EE0E94F506012B19F081EE0E9475
:100B2000F506CD2B51F08CE2DF91CF911F910F9103
:100B3000FF90EF90DF900C946207DF91CF911F91AF
:100B40000F91FF90EF90DF900895EF92FF920F9337
:100B50001F93CF93DF93EC01162F0AE0888188233F
:100B600009F454C0813009F04EC08981813099F474
:100B70007E0122E0E20EF11C8A810E946207E701F9
:100B80002196812F815050F3EFE9FFE03197F1F783
:100B900000C00000F7CF823041F47E0182E0E80E11
:100BA000F11C8A810E946306EACF833041F47E0102
:100BB000E2E0EE0EF11C8A810E94F506E0CF84305F
:100BC00011F02196DDCF2A81229690E080E0AE01DF
:100BD0004F5F5F4F2053330B2A30310548F00197A8
:100BE00078F2EFE9FFE03197F1F700C00000F7CFAE
:100BF000089FB001099F700D1124C901860F971F2E
:100C00002981EA01E4CF0E943F05BACFDF91CF915D
:100C10001F910F91FF90EF90089560E00C94A5054F
:100C200008950C94100681E008950C94130608951D
:100C3000CF93C82F0E9411068C2FCF910C941506CC
:100C4000CF93DF93CDB7DEB72B970FB6F894DEBF07
:100C50000FBECDBF4F83588769877A878B87611115
:100C60000E94C30E1E821D8285E0FE013796DE01C2
:100C7000119601900D928A95E1F78C819D81892BC7
:100C800089F449815A816B817C818D819E810E948A
:100C9000E40D2B960FB6F894DEBF0FBECDBFDF91EB
:100CA000CF91089589819A8189238F3F51F3CE0195
:100CB00001960E9489048111E4CFEBCFFC01808171
:100CC00091810C940A0BCF93C82F882309F48BC011
:100CD0008238C1F40E94F12481FD85C089E30E941D
:100CE0007E0E0E94F30E2FEF81EE94E021508040A3
:100CF0009040E1F700C0000089E30E94850ECF918B
:100D00000C94F30E8338A1F40E94F12480FD6BC093
:100D100083E50E947E0E0E94F30E2FEF81EE94E099
:100D2000215080409040E1F700C0000083E5E5CF0E
:100D30008438A1F40E94F12482FD55C087E40E940A
:100D40007E0E0E94F30E2FEF81EE94E02150804042
:100D50009040E1F700C0000087E4CFCF8CEF8C0F0C
:100D6000813A90F46C2F80910601909107010E94C6
:100D70006525882329F08C2F0E94850E0E94F30E92
:100D80008C2F0E947E0EBBCF80E28C0F883048F4FF
:100D9000C77081E001C0880FCA95EAF70E94A60ECD
:100DA000AECFEBE5EC0FE33040F4F0E0E25AFE4F5B
:100DB000808190E0CF910C942525E8E5EC0FE73198
:100DC00050F4F0E0EE0FFF1FE05DFE4F8081918157
:100DD000CF910C943B25C03F30F08C2F0E944715DB
:100DE000CF910C941A16CF910895882309F452C01C
:100DF000823871F40E94F12481FF4CC089E30E9483
:100E00007E0E0E94F30E89E30E94850E0C94F30E71
:100E1000833859F40E94F12480FF3CC083E50E948E
:100E20007E0E0E94F30E83E5EFCF843859F40E94C2
:100E3000F12482FF2FC087E40E947E0E0E94F30EF1
:100E400087E4E2CF9CEF980F913AF0F290E2980F8E
:100E5000983050F4877091E001C0990F8A95EAF7B5
:100E6000892F0E94AC0ED2CF9BE5980F933020F4CF
:100E700090E080E00C94252598E5980F973120F4B8
:100E800090E080E00C943B25803F20F00E94A1156B
:100E90000C941A1608951F93CF93DF93182FEB012C
:100EA0000E946306209731F4812FDF91CF911F912B
:100EB0000C94F5068FE99FE00197F1F700C0000060
:100EC0002197F0CF70E060E0893311F460E570E0C5
:100ED0000C944B07882321F00E94A60E0C94F30E6D
:100EE0000895882321F00E94AC0E0C94F30E08950F
:100EF000BF92CF92DF92EF92FF920F931F93CF9307
:100F0000DF936C01D62FC72FFC011281F580F2947C
:100F10009FE0F9220E949C0EE82E8823B9F0E12E72
:100F20001123A1F08C2F807F803421F080E28D0F7F
:100F30008830B0F08091350382FD12C082E00E94BB
:100F4000440F0E949C0E91E0E82EE926BC2EB2943C
:100F50008FE0B822EB2DF0E0E155FF4C0C94922F7E
:100F6000E12CF4CF0C2F0F70C07F11F00295007FA1
:100F7000112399F0002359F080E28D0F883010F092
:100F8000D11107C0802F0E94A60E0E94F30E8D2F54
:100F900041C0802F0E94B60EF8CF8D2F0E94F5061B
:100FA000002309F43FC080E28D0F883010F0D1118A
:100FB00004C0802F0E94AC0E03C0802F0E94BC0E84
:100FC0000E94F30E2FC00C2F0F70C07FC03211F0A3
:100FD0000295007FDD2381F0D13009F469C011232F
:100FE00009F473C0FF2009F469C0F601858180FF10
:100FF000CECF8F70858362C08091350382FF38C069
:10100000112359F0002329F0802F0E94A60E0E9480
:10101000F30E80E00E94630605C080E00E94F506A2
:101020000111C7CFEB2DE850FF0B349720F40E943D
:10103000F1240E941806EE2009F45DC10E94980E6A
:1010400080FD59C1F60112820E94920E0E94570A39
:10105000C6010E949C090E94920EDF91CF911F91C0
:101060000F91FF90EF90DF90CF90BF900C94620AA9
:10107000112389F0F11006C00E94D60E802B0E9429
:101080006A07D0CFF1E0FF12F7CF0E94D60E802B77
:101090000E94DC0EC7CFF11006C00E94E90E802F1F
:1010A0000E947107BFCF21E0F21609F4BBCFF5CF44
:1010B000112331F035E03F1508F4B4CF802FDFCF96
:1010C00084E08F1508F4AECFEACFFF2041F3D93387
:1010D00049F4FFEF27EE33E0F15020403040E1F7D4
:1010E00000C000008D2F0E94F5069CCF8C2F8695A6
:1010F0008695837069F0813009F094CF8D2F9C2FF5
:101100009370111102C090E080E00E943B258ACFCD
:101110008D2F9C2F9370111102C090E080E00E94EF
:10112000252580CF8D2F112329F00E9447150E947D
:101130001A1678CF0E94A115FACF8C2F837079F5FB
:10114000111170CF4D2F429546954770440F440FB3
:101150008D2F8F70042E01C0880F0A94EAF72D2F6F
:101160002071D4FF07C02FE030E001C0220F4A9564
:10117000EAF72095C695C695C370822BC23049F018
:1011800058F4C13019F00E94380A4CCF0E94330A3B
:1011900049CF0E943D0A46CF0E94310A43CF86952F
:1011A000112311F08C2F8170882309F43BCF4D2F30
:1011B000429546954770440F440F8D2F8F70042E33
:1011C00001C0880F0A94EAF72D2F2071D4FF07C0C1
:1011D0002FE030E001C0220F4A95EAF72095C6952E
:1011E000C695C370822BC23049F058F4C13019F053
:1011F0000E947E0A17CF0E94790A14CF0E94830AA8
:1012000011CF0E94460A0ECFCF70112329F08C2FE8
:101210000E94570A8D2F33CF8D2F0E9471078C2F7C
:101220000E94620AFFCED23F51F160F4D03FB9F084
:10123000D13F81F0112309F449C0F110A8CE8C2FC1
:101240008F7121C0D33F11F1D43FA1F780913503B5
:1012500082FF26C08C2F8F71112311F314C011232C
:1012600049F084E08F1508F4DDCE8C2F8F710E9439
:101270006E0AD8CE95E09F1508F4D4CEF6CF8C2F09
:101280008F711111CDCF0E94570ACCCE112329F0B6
:101290008C2F8F710E944F0AC5CE0E944C0AC2CE7D
:1012A000112349F0CF718C2F0E94570A63E08C2FD5
:1012B0000E94290FB7CE81E00E94440FE1E0EF15B4
:1012C00008F0B0CE82E00E94440FACCEF110FFCE09
:1012D0008C2F8F71A5CF4C2F4F706D2FC6010E94A0
:1012E00028110E94380B9ECE4C2F4F706D2FC601D7
:1012F0000E942B1197CEDF91CF911F910F91FF90FC
:10130000EF90DF90CF90BF9008950F931F93CF93EE
:10131000DF93EC01688179818A810E94140B8C0132
:101320000E94880A0E94300AB801CE01DF91CF9155
:101330001F910F910C947807CF93DF93EC018B8171
:101340009C81892B29F08881998189238F3F59F4C9
:10135000DF91CF910895CE010E948509CE01DF91E2
:10136000CF910C948B04CE010E94D8048111F3CF4D
:101370000E949C0E882361F38A81882349F380911F
:10138000350382FDE5CF82E0DF91CF910C94440FCD
:1013900090E080E00E94252590E080E00E943B25BF
:1013A0000E94C30E0E94D30E0E94F30E0E944117AA
:1013B0000C941A160E948C0E0C94C8090E94B30E4D
:1013C0000C94DA09E92FE295EF70E250EE3070F4F8
:1013D000F0E0E154FF4C0C94922F803F19F020F480
:1013E000883E20F481E00895843FE1F380E0089591
:1013F000883EC0F3813FD1F7F5CF93FB882780F972
:101400000895FC01808191810E940A0B0C94E209ED
:10141000CF93DF9300D000D00F92CDB7DEB70F90FF
:101420000F900F900F900F90DF91CF910895CF9371
:10143000DF9300D000D000D0CDB7DEB726960FB630
:10144000F894DEBF0FBECDBFDF91CF910895089510
:101450000C94270A0E94280A809314020C94C8094D
:1014600008950C942A0A90911402892B0C942A0A4C
:101470009091140289230C942A0A909114028927CE
:101480000C942A0A0C94270A0C94420A0E94440ADB
:10149000809313020C94C80980E00C94460A91E0F2
:1014A00001C0990F8A95EAF7892F0C94460A21E02A
:1014B00030E001C0220F8A95EAF780911302822B57
:1014C0000C94460A21E030E001C0220F8A95EAF729
:1014D00020958091130282230C94460A21E030E08B
:1014E00001C0220F8A95EAF78091130282270C949B
:1014F000460A90911302892B0C94460A909113028C
:1015000089230C94460A9091130289270C94460A69
:10151000089529E0929F800D1124982F977041E043
:1015200001C0440F9A95EAF786958695869593E0D3
:10153000899FF0011124E751FE4F90E080E070E0B8
:101540005191DF0111979B01082E02C03695279516
:101550000A94E2F7217021952527242325272C932F
:1015600001968330910561F7089529E0929F800DDF
:101570001124982F977086958695869523E0829FF3
:10158000F0011124E751FE4F50E040E080E021914E
:1015900030E0092E02C0369527950A94E2F72170B3
:1015A0003327042E01C0220F0A94EAF7822B4F5FE3
:1015B0005F4F4330510559F70895CF92DF92FF9264
:1015C0000F931F93CF93DF936C01009113028091CF
:1015D0001402082BC7E0D0E010E0FC2EC8010C2E4E
:1015E00002C0959587950A94E2F780FD0CC021977B
:1015F000A0F7F12C8F2DDF91CF911F910F91FF90CC
:10160000DF90CF900895B6018C2F0E94471201976A
:1016100071F3F0CFCF93DF93EC010E94DD0ABE019E
:10162000DF91CF910C9447121F93CF93DF93EB017F
:101630009091E801992331F0CB01DF91CF911F9177
:101640000C940A0B882379F0CB010E94DD0A182F35
:10165000682FCE010E94890ABE01812FDF91CF91B0
:101660001F910C944712CB010E94B50A182FF4CF9A
:10167000EF92FF920F931F93CF93DF938C01892BEF
:1016800081F0F12CEE24E394E8012196F801849195
:10169000843770F4843008F05FC08130B1F082305C
:1016A000A1F1DF91CF911F910F91FF90EF900895DD
:1016B000853709F44CC008F43DC09CE7980F90377B
:1016C00080F78F770E94F50649C00E5F1F4FFE011D
:1016D000849190E2980F983060F48770FE2D01C0DD
:1016E000FF0F8A95EAF78F2F0E94C60E0E94F30E15
:1016F00002C00E9463068F2D815030F2EFE9FFE0B7
:101700003197F1F700C00000F7CF0E5F1F4FFE01C9
:10171000849190E2980F983050F48770FE2D01C0AC
:10172000FF0F8A95EAF78F2F0E94CC0EDFCF0E9421
:10173000F506E1CF0E5F1F4FFE01C491C150D8F2F4
:101740008FE99FE00197F1F700C00000F7CF0E5F2F
:101750001F4FFE01F490CFCF0E9463068E01CBCFC6
:101760001F93CF93DF93C091150216E0809116026C
:101770008C1304C0DF91CF911F910895D0E01C9F7E
:10178000F0011D9FF00D1124E95EFD4F4081518154
:1017900062817381848195810E94170A2196C770A6
:1017A000E5CF409147025091480260914902709103
:1017B0004A0280914B0290914C020C94170AFF92BE
:1017C0000F931F93CF93DF9380914C02807FD1F4CE
:1017D000809149028823B1F0809115021091160280
:1017E0006091470270914802A0914A02B0914B0269
:1017F000062F0723C0910401D091050196E0F92E30
:10180000181306C0DF91CF911F910F91FF9008959B
:1018100090E0109711F00F3F19F401968770F0CF08
:10182000F89E9001F99E300D1124F901E95EFD4FFB
:1018300041814713F2CF40814613EFCF42814111DE
:10184000ECCF438154814A1B5B0B4C175D0728F793
:1018500080914C028F70806180934C02F901E45EAC
:10186000FD4F80818F708061808387E492E00E94C9
:101870009C09DF91CF911F910F91FF900C94B00BB9
:10188000AF92BF92CF92DF92EF92FF920F931F938E
:10189000CF93DF93CDB7DEB761970FB6F894DEBF75
:1018A0000FBECDBF8C0185E0F801DE011D960190D1
:1018B0000D928A95E1F7F801E28087E4C82E82E074
:1018C000D82E60914A0270914B026115710509F49E
:1018D0005FC19091470220914802892F82238F3F58
:1018E00009F456C140815181A380B480F09049022F
:1018F000F501E61BF70BBF01E0910401F091050132
:10190000FF2009F4F6C080914C02382F307F6E170B
:101910007F0708F0AFC0311179C0FE2C251323C01A
:10192000941321C0E1101FC08F70806180934C021E
:101930000E94D10BC6010E949C0980914C02F801C3
:1019400085838F2D61960FB6F894DEBF0FBECDBF95
:10195000DF91CF911F910F91FF90EF90DF90CF908B
:10196000BF90AF900895AB2829F0842F85238F3F37
:1019700009F027C180E0F82FF170DF2E80FF3CC016
:10198000809115022091160236E0821315C04D8712
:101990005E878D859E850E940A0B292F22952F70C8
:1019A0002230F0F0243018F59F70F1F0F8019581A5
:1019B000907FD1F4D12C1EC090E0389FF001399F68
:1019C000F00D1124E95EFD4F6181651306C0608151
:1019D000641303C062816E110FC001968770D5CF6A
:1019E0009F7011F0882331F3805E883018F3C801AE
:1019F0000E949C09FD2CA5CFEE2009F4A2CF809176
:101A00004C02816080934C02F12C9BCF251306C0C1
:101A1000941304C0F801EE2009F487C0C8010E94A5
:101A2000010A882319F1EE2009F180914C028032DD
:101A300070F0209147023091480238872F83198631
:101A4000BB86AA868C87CE0107960E949C0986E0F9
:101A5000F801A7E4B2E001900D928A95E1F70E94A7
:101A6000DF0B0E94D10BFF24F3946BCFC8010E94BF
:101A70009C09F9CF311113C07A2DB98AA88A6E2D2D
:101A800089890E94080A87E492E00E949C0986E006
:101A9000F60111928A95E9F70E94D10BB5CF251373
:101AA0000FC094130DC0E1100BC0F8018583C8016D
:101AB0000E949C0986E0F60111928A95E9F741CFD0
:101AC000C8010E94010A882389F2EE2079F28091F0
:101AD0004C02803208F4BBCF20914702309148027B
:101AE0003A8329831B82BD82AC828E83CE0101960C
:101AF000ACCF6E177F0708F03EC0FE2CEE2009F435
:101B0000B5CF25132AC0941328C080914C0280FDC4
:101B10001BC0982F907FC1F0F8018583903F31F072
:101B2000982F907F905F8F70892B8583C8010E94CA
:101B30009C0986E0F801A7E4B2E001900D928A9535
:101B4000E1F70E94D10BFDCE86E0F801A7E4B2E0F8
:101B500001900D928A95E1F7F4CEC8010E94010A26
:101B6000811175CF80914C02816080934C02C80135
:101B70000E949C09E6CE7A2DB98AA88A6E2D8989A1
:101B80000E94080A86E0F60111928A95E9F7D9CFFA
:101B9000EE2009F46BCFC8010E94010AF82E8823B9
:101BA00009F464CF86E0F801A7E4B2E001900D9259
:101BB0008A95E1F787E492E00E945E060E94DF0BBF
:101BC000C0CF81E08E25D7CE1F93CF93DF93CDB7C3
:101BD000DEB72C970FB6F894DEBF0FBECDBF4F8394
:101BE000588769877A878B879C87CE0107960E94E2
:101BF000400C882369F08A859B85892B39F04F81B9
:101C00005885842F85238F3F09F071C016E05FC08F
:101C100086E0FE013796DE01119601900D928A95BD
:101C2000E1F78A859B85892B89F38F8198858923A4
:101C30008F3F61F32091160230E0C9010196877051
:101C40009927409115024817190671F40E94DE0980
:101C5000109216021092150286E0E7E4F2E0DF012E
:101C60001D928A95E9F7D2CF96E0929FD001939F7B
:101C7000B00D1124A95EBD4FFE01319601900D9269
:101C80009A95E1F7809316020E94B00BBFCF819F17
:101C9000C0011124895E9D4F0E94400C8823E9F009
:101CA000E09115021E9FF0011124E95EFD4F408175
:101CB000518162817381848195810E94170A80918C
:101CC000150290E001968770992780931502809104
:101CD0001502909116028913DACF2C960FB6F8945C
:101CE000DEBF0FBECDBFDF91CF911F9108956985F3
:101CF0007A858B859C850E94170A88CF682F8091F2
:101D00000601909107010C94E525682F809106014A
:101D1000909107010C94F0258091060190910701A4
:101D20000C94FB2580914D028595859585950895A8
:101D300080914D028770089590914D02977081E0D7
:101D400009F480E0089580917102089590917102E4
:101D5000892B809371020895809590917102982348
:101D600090937102089510927102089590917002FB
:101D7000892B80937002089580959091700298232A
:101D800090937002089510927002089590916F02DE
:101D9000892B80936F020895809590916F0298230C
:101DA00090936F02089510926F02089580914E02F1
:101DB000089508950C94D90E9091350392FD08C0B2
:101DC00090914E02981721F080934E020C94DA0EF7
:101DD000089580914E02882329F010924E0280E0EF
:101DE0000C94DA0E0895E0910601F09107018091BC
:101DF00071028083E0910601F0910701808190914A
:101E00007002892B8083E0910601F09107018081A7
:101E100090916F02892B808390914E02992381F0DB
:101E2000E0910601F09107018081892B80838091E8
:101E30000601909107010E94512581110E94E90E2F
:101E400080910601909107010C94FD2408950C9453
:101E5000260F9091350392FD10C098E0899F900164
:101E60001124622B60934D020E94570A80914D020B
:101E70008595859585950C94270F0C94570A10929B
:101E80004D0280E00C94270F90914D02809589239C
:101E900080934D02282F277091F4282F082E000CD4
:101EA000330B9217130659F09091350392FD07C03A
:101EB0008595859585950E94620A0C943F0F08953B
:101EC0009091350392FB222720F9281769F080FBB7
:101ED00092F99093350380913403909135030E94D9
:101EE000AB0F82E00C94440F08958091350382FB80
:101EF000882780F991E089270C94600F81E00C9489
:101F0000600F80E00C94600F6FEF7FEF90E080E057
:101F10000C94783090E080E00E945430893E9E4FCF
:101F200011F40C949A1F80E0089582E090E00C94E4
:101F3000463083E090E00C944630CF9384E090E00C
:101F40000E944630C82F82E290E00E944630982FCF
:101F50008C2FCF910895CF93C92F682F84E090E004
:101F60000E945A306C2F82E290E0CF910C945A304C
:101F7000AB01BC018FE090E00C946C30AB01BC0174
:101F800083E190E00C946C3060E070E0CB010C9445
:101F9000BE0F60E070E0CB010E94B80F0C94C40F3C
:101FA00069EE7EEF90E080E00E94783060E082E0B1
:101FB00090E00E945A3060E083E090E00E945A3046
:101FC0001092140260E084E090E00E945A3060E0D9
:101FD00082E290E00E945A3060E085E090E00E944A
:101FE0005A3060E086E090E00E945A306FEF87E060
:101FF00090E00E945A3040E050E0BA0188E090E062
:102000000E946C3060E08DE090E00E945A3040E029
:1020100050E0BA0188E190E00E946C3060E087E116
:1020200090E00E945A3040E050E0BA018CE190E02C
:102030000E946C3070E060E080E290E00E947830B6
:1020400040E050E0BA0188E190E00E946C3080E00E
:102050000E94B31F0E94D91F0C94C90F0C94D00F7B
:10206000682F8EE090E00C945A300E94AA2660936C
:102070008F027093900280939102909392026093EA
:102080008B0270938C0280938D0290938E02089540
:1020900085B7806885BF85B7806885BF0895089536
:1020A00008950C944F1008950C9453100E944810FA
:1020B00081E199E20E94E7240E9450100C94511093
:1020C00081E008950C946010089508950E946410B2
:1020D0000C9465100E9495260E94E81F0E9411141E
:1020E0000E94A81D0C9454108F929F92AF92BF92A1
:1020F000CF92DF92EF92FF920F931F93CF93DF93D4
:10210000CDB7DEB72A970FB6F894DEBF0FBECDBFAE
:102110000E94261481110E94351053E7852E52E04B
:10212000952E10E000E0A02E802F0E945D136C0120
:10213000F401E190F1904F01E816F90609F45EC050
:102140008091930281FD0E946613C7018C259D2515
:10215000B12CEE24E394F12C9C012E213F21232B62
:1021600009F446C00E9462108823A9F0BE82AF82A3
:10217000CE20DF2081E0CD2809F480E088870E940E
:102180009E268160782F9A8789874E815F81688536
:102190008A850E942006000F111FF801ED58FD4F9F
:1021A00080819181E826F926F182E0820E94E31D78
:1021B0000E9435160E94F124909172028917A9F1AC
:1021C0000E94F124809372022A960FB6F894DEBF23
:1021D0000FBECDBFDF91CF911F910F91FF90EF9078
:1021E000DF90CF90BF90AF909F908F900C94180687
:1021F000B394EE0CFF1CF9E0BF12AECF0F5F1F4F80
:102200000C30110509F08FCF8FEF89838A831B82F1
:102210000E949E268160782F9D838C8349815A81FC
:102220006B818D810E942006C1CF2A960FB6F8944B
:10223000DEBF0FBECDBFDF91CF911F910F91FF90F9
:10224000EF90DF90CF90BF90AF909F908F900895C8
:1022500090E080E008950895FC01EE0FFF1FEC511F
:10226000FC4F859194910895CF93DF930E944B1278
:10227000EC01811520E5920708F042C0811530E499
:10228000930708F0BDC0883E910528F5803E910572
:1022900008F09DC0883A910588F4853A910508F0C8
:1022A0008FC08130910509F492C0009709F48FC066
:1022B000049708F08CC0D0E0C0E089C08F3B910546
:1022C00008F489C0805C9109C03CD105A0F30E944C
:1022D0002C11EC017CC08115904250F4C11581E0B5
:1022E000D80708F074C0C03FD10528F3D0656FC08F
:1022F000C11590E3D90708F079C0CE019F70E7CFF0
:10230000811525E5920758F5811534E5930708F006
:10231000A6C0811542E5940750F4C11581E5D807A0
:1023200008F471C0DC2FCC27C16FD06A50C0982F41
:10233000969596959E0123703327C115D34508F0D5
:102340007FC0C1E0D0E002C0CC0FDD1F2A95E2F7CC
:1023500020E2929FC0011124C82BD92B6FC0C11558
:1023600089E5D807A8F4C11598E5D90708F07CC01D
:10237000C11526E5D20708F09ECF8C2F0E94E212ED
:10238000C82FD0E0DC2FCC27CC27DF71D0621FC054
:10239000C1153AE5D30708F46CC0CE0190568115FB
:1023A000904208F088CF8D2F8F710E94E21290E04A
:1023B000982F882788279F719C012C2BE901E6CF55
:1023C000C55AD0E0C157DE4FC881D0E0D064CE01FD
:1023D000DF91CF910895C85AD0E0CC0FDD1FCF59BF
:1023E000DE4F0990D881C02DD464F1CFCE0199275A
:1023F000D3FF03C0EC01D86CEACFEC01D06CE7CF7F
:10240000DF70D06AE4CFCE01E4E096958795EA9537
:10241000E1F783702C2F26952695237090E2299F53
:1024200090011124382B8C2F8370C1E0D0E002C0C2
:10243000CC0FDD1F8A95E2F7C22BD32BDC68C7CF08
:10244000C1E0D0E002C0CC0FDD1F2A95E2F730E2F8
:10245000939FC0011124C82BD92BDA68B8CFD82F8D
:10246000CC27C46FD06AB3CFDC2FCC27C06FD06A23
:10247000AECF8C2F8F700E94E21234E0D695C795B4
:102480003A95E1F7CF709C2FEC01D069A0CF0E9464
:1024900034230C94341182389105B1F1B0F48133B6
:1024A000910509F475C048F48932910509F469C0B1
:1024B0008A32910509F473C008958533910509F4B2
:1024C00059C08933910501F10895833E9105A9F121
:1024D00038F4803E9105F9F0823E910549F1089566
:1024E000863E9105A9F1873E9105C9F1843E91058B
:1024F00019F52091350321FF1FC08091340384FD1D
:1025000014C087EE90E00895209134032370A1F069
:1025100080EE90E008952091340320FD47C0309173
:10252000350330FF09C024FF44C090E080E004C0C0
:102530002091340322FDF7CF08952091340322FD2A
:102540003BC03091350330FDE3CF24FFF5CFEDCF15
:102550002091340323FFF0CF24FDE7CFD2CF209189
:10256000340323FD2CC03091350331FFEECF84EED0
:1025700090E008952091340325FFDECF89E290E0BA
:1025800008952091340325FFD7CF85E390E0089587
:102590002091340326FFD0CF8AE290E00895209165
:1025A000340326FFC9CF81E390E0089589E390E0EA
:1025B000089583EE90E0089582EE90E0089586EE0F
:1025C00090E008959091340392FF06C0282F28715F
:1025D0002830F9F4877F846093FF06C0282F287184
:1025E0002831F1F4877E84612091350320FF06C0F5
:1025F000382F38713830D9F4877F816021FF06C0C9
:10260000282F28712831D1F4877E816194FD877E3F
:102610000895282F24712430F9F68B7F8860DCCF51
:10262000282F2471243101F78B7E8861DDCF382F6C
:102630003171313019F78E7F8860E0CF282F2171FA
:10264000213121F78E7E8861E1CF0C94840F0E94A6
:1026500026148FE39CE90197F1F700C000000E9467
:10266000261480E00E945D1380FF04C00E942513A1
:102670000C94E92608950C9427130E948A0F811167
:1026800002C00E942E100E94950F809393020E9418
:102690009D0F90933503809334030E943B130E9457
:1026A000990F0E94310A809113020C94440A0895F4
:1026B0000C94571308950C945A13E82FF0E0EE0F82
:1026C000FF1FE25BFC4F808191810895089580EAAD
:1026D0008A95F1F7089500C008950C946713F89453
:1026E000E82FE295EF70F0E031A1282F2F7081E004
:1026F00090E001C0880F2A95EAF7982F90959323D0
:1027000091A392A1892B82A378940895CF93DF930C
:10271000CBE9D1E089918F3F11F00E946F1381E0E6
:10272000C73AD807B9F7C2E9D1E089918F3F11F0D4
:102730000E946F1381E0CB39D807B9F7DF91CF91B1
:102740000895AF92BF92DF92EF92FF920F931F9383
:10275000CF93DF938C01D62EC62FD0E0CE018556C5
:102760009E4F7C01FC0120812F3F09F44DC0F8945D
:10277000E22FE295EF70F0E031A12F7081E090E060
:1027800001C0880F2A95EAF7932F982B91A392A165
:102790008095892382A378940E946B13E2E9F1E08B
:1027A0004BE951E021E030E0B12CA12C61916F3F69
:1027B000A9F1A62FA295AF70B0E090968C9190E011
:1027C0006F7002C0959587956A95E2F780FD26C0E7
:1027D000C901A82AB92A220F331F4E175F0731F704
:1027E000F70180818F3F11F00E946F1361E0A11407
:1027F000B10409F460E08D2D0E946D13CC0FDD1F34
:10280000C00FD11FB982A882DF91CF911F910F9184
:10281000FF90EF90DF90BF90AF90089590E080E040
:10282000D8CF0E94861388E1EEE4F3E0DF01982F11
:102830001D929A95E9F7E6E3F3E0DF011D928A9590
:10284000E9F78CE00E9471140C94BC04FF920F9382
:102850001F93CF93DF93CDB7DEB768970FB6F89489
:10286000DEBF0FBECDBF8E010F5F1F4F88E1F801A5
:1028700011928A95E9F7F12C6F2DC8010E94A113DE
:10288000F394FCE0FF12F8CF48E150E0B80186E392
:1028900093E00E943930FF24F394009709F4F12C5F
:1028A000892B41F088E1F801A6E3B3E001900D9295
:1028B0008A95E1F72F2D4CE06EE473E086E393E018
:1028C0000E9472140E94C2048F2D68960FB6F8946D
:1028D000DEBF0FBECDBFDF91CF911F910F91FF9053
:1028E00008950895FF920F931F93CF93DF93F82ECF
:1028F000092F162FD72FC42F222349F081E0809370
:1029000096020E949E269093950280939402809155
:1029100096028823A1F080919402909195020E94E2
:10292000B626059760F0EF2DF02FA12FBD2F90E078
:1029300080E0D0E08C179D0744F010929602DF9162
:10294000CF911F910F91FF900895219131912D9377
:102950003D930196EFCF0E948C290E946A100C943F
:1029600098290E949C290E9474100C94B6290E94F8
:1029700027260E9473290E9456100E94AB140E94C1
:10298000B1140E946610FBCF80919D0280FF12C09F
:1029900060910D0185E0689FB001112475956795E0
:1029A0007595679560387105A8F561157105A1F1F8
:1029B000862F089581FF09C060910D0185E0689F11
:1029C000B001112475956795EDCF60910D0182FDE1
:1029D0000AC080919C028823D1F090910C016091F3
:1029E0000D01891728F085E0689FB0011124DACF26
:1029F000869FB001112485E0869F9001879F300D4E
:102A00001124692F70E0C9010E945C2FCBCF65E0D3
:102A100070E0CECF8FE7089581E0089580919D0208
:102A200080FF0CC06091090170E075956795759500
:102A300067956115710549F1862F089581FF06C0DC
:102A40006091090170E075956795F3CF6091090178
:102A500082FD0BC090919B029923A1F06091080127
:102A600080910901961738F0682F70E06038710581
:102A700000F38FE70895899FC001112470E00E9440
:102A80005C2FF4CF61E070E0D7CF81E00895803F04
:102A900031F40E94C41481958093A1020895813F6E
:102AA00019F40E94C414F8CF823F31F40E94C41478
:102AB00081958093A0020895833F19F40E94C41465
:102AC000F8CF893F29F40E940E158093A202089541
:102AD0008A3F21F40E940E158195F7CF8B3F31F488
:102AE0000E940E1581958093A30208958C3F19F4DE
:102AF0000E940E15F8CF9CE0980F953070F4845F1B
:102B0000990B21E030E001C0220F8A95EAF780910D
:102B10009F02822B80939F0208958D3F31F4809114
:102B20009D02816080939D0208958E3F21F48091E3
:102B30009D028260F7CF8F3FB9F780919D0284603C
:102B4000F1CF4091A002803F59F48091A10287FF0C
:102B50000DC01092A10241110BC010929C0208C03E
:102B6000813F81F48091A10218169CF3442381F0E7
:102B70008091A2029091A302892B09F05AC0109271
:102B80009B020895823F49F447FFF0CF1092A002C4
:102B90008091A1028111ECCFE0CF833F19F414168C
:102BA000ACF3E4CF9091A202893F29F41916F4F610
:102BB0001092A202DBCF8A3F19F497FFD7CFF8CF4C
:102BC0009091A3028B3F29F497FFD0CF1092A302DC
:102BD000CDCF8C3F19F41916CCF3C8CF9CE0980FD9
:102BE000953090F4845F990B21E030E0B90102C088
:102BF000660F771F8A95E2F7CB01809590919F022F
:102C0000892380939F02B2CF8D3F31F480919D0242
:102C10008E7F80939D02AACF8E3F21F480919D02EA
:102C20008D7FF7CF8F3F09F0A1CF80919D028B7FE1
:102C3000F0CF08950E949E269C019091A002809161
:102C4000A102982B21F030939A022093990290913F
:102C5000A2028091A302982B21F030939802209336
:102C600097028EE992E00C941725EF92FF920F9352
:102C70001F93CF93DF9300D000D000D0CDB7DEB745
:102C800086E0EEE9F2E0DE01119601900D928A9560
:102C9000E1F7E090A002F090A1020091A202109151
:102CA000A3021092A0021092A1021092A20210920E
:102CB000A3028E2D8F2991F08091990290919A0212
:102CC0000E94B626AC0190919C02992309F43FC062
:102CD00080910E018417150608F447C0802F812BC0
:102CE00091F080919702909198020E94B626AC01D3
:102CF00090919B02992309F477C080910A0184176F
:102D0000150608F47FC08091A0029091A102892B42
:102D10009091A202892B9091A302892B11F00E941D
:102D20001A1686E0FE013196AEE9B2E001900D92EE
:102D30008A95E1F726960FB6F894DEBF0FBECDBF99
:102D4000DF91CF911F910F91FF90EF900895209107
:102D50000F018AE0289F900111242417350708F0FD
:102D6000BDCF9F5F90939C0202C09F3FD1F7EE20A2
:102D700059F00E94C4149FEF1E140CF491E0899F37
:102D8000802D11248093A002FF2059F00E94C414CA
:102D90009FEF1F140CF491E0899F802D11248093E4
:102DA000A1023091A002332309F498CF2091A1020F
:102DB000222309F493CF45EB3403C0011124992356
:102DC00059F09093A00245EB240390011124332382
:102DD00039F03093A10282CF81E08093A002F3CF3B
:102DE00081E08093A1027ACF20910B018AE0289F95
:102DF000900111242417350708F085CF9F5F909329
:102E00009B0202C09F3FD1F7002359F00E940E158C
:102E10009FEF10160CF491E0899F802D1124809370
:102E2000A202112359F00E940E159FEF11160CF407
:102E300091E0899F802D11248093A3023091A202FA
:102E4000332309F460CF2091A302222309F45BCF3E
:102E500045EB3403C0011124992359F09093A20249
:102E600045EB240390011124332339F03093A3025E
:102E70004ACF81E08093A202F3CF81E08093A30246
:102E800042CF86E0EEE9F2E0DF011D928A95E9F794
:102E900010929C0210929B0210929D020895EF9254
:102EA000FF920F931F93CF93DF93EB01E82FD11184
:102EB00010C0442321F0F0E0E250FB4FE4916E2F6C
:102EC0007E2F8E2FDF91CF911F910F91FF90EF906A
:102ED00008950D2F10E0282F30E0442329F02250D0
:102EE0003B4FF901249130E0F6E0CF9FC00111245F
:102EF000EFEFF0E0BF010E94482FAB018C2F90E074
:102F0000880F991FA5E5A49FB001A59F700D1124FE
:102F1000861B970B982F990F980FBF01601B710BA1
:102F2000629FD001639FB00D729FB00D11248B2F53
:102F30009D9FB0011124672F7727EF01C61BD70B88
:102F4000BE01629FE001639FD00D729FD00D1124DE
:102F50007F01E91AF108E09EB001E19E700DF09E3C
:102F6000700D1124672F7727E61BF70BE29F800176
:102F7000E39F100DF29F100D1124E12F722F4230AC
:102F8000510599F048F44115510569F0413051055A
:102F900081F0EB2F8D2F07C04430510569F080F090
:102FA00046305105B1F76E2F8DCFE22F7B2F812F49
:102FB000FACFE22F7D2FF7CFEB2F822F712FF3CF98
:102FC0007B2F822FED2FEFCF41E00C944F17089508
:102FD0000C94E417CF93DF93762FE901682F842FA9
:102FE0000E94E817798368838A83DF91CF910895DF
:102FF00080916603982F9E7F29F481708260809370
:10300000660308958635E8F381708465F8CF88E01B
:1030100090E00C944E30CF92DF92EF92FF926B01D2
:103020007C010E94F817B701A60188E090E0FF90AC
:10303000EF90DF90CF900C946C30609166037091AC
:10304000670380916803909169030C940B18E6E67E
:10305000F3E083E0808311828FEF82838383148285
:1030600060817181828193810C940B188091660339
:1030700080FF02C08695089580E0089590916A03CC
:10308000933018F49F5F90936A03882351F0609106
:1030900066037091670380916803909169030C94B3
:1030A0000B18089581E00C943E1890916A039923BF
:1030B00019F0915090936A03882351F06091660350
:1030C0007091670380916803909169030C940B18C9
:1030D000089581E00C94551880916A0308958093B7
:1030E0006A03662351F060916603709167038091D3
:1030F0006803909169030C940B18089560E00C9498
:103100006F188091670308958091680308958091F6
:103110006903089570E00C946E1F60911401809112
:10312000660380FF0AC08091130123E0829FC001E3
:10313000112485599C4F0C948A1880911501909107
:10314000160123E0829FF0011124E559FC4F8917F5
:1031500050F71182108212828F5F3396F8CF9091D0
:10316000660390FF14C0909115012091160133E081
:10317000939FF0011124E559FC4F921710F00C9425
:103180008D188183608342839F5F3396F6CF0895C5
:10319000CF93DF9300D00F92CDB7DEB79091660347
:1031A00090FF0AC09E012F5F3F4F0E94EA174B819C
:1031B00069818A810E94AF180F900F900F90DF9164
:1031C000CF910895CF93DF93EC01EC81F0E0E750CD
:1031D000FC4F4491E6E6F3E0628181810E94C818C9
:1031E0008C818F5F8C83DF91CF910895CF93DF9394
:1031F000EC01E6E6F3E0438162818C810E94C8180D
:103200008C818F5F8C83DF91CF9108950F931F93F3
:10321000CF93DF9300D00F92CDB7DEB78C018091B2
:10322000A40281110AC09E012F5F3F4F4FEF6FEF45
:103230000E94EA178A818093A402F80164816130B8
:1032400069F08091A40240E0662361F040E06230C2
:1032500011F44091A40280E060E004C06091A402F7
:1032600040E080E00E94AF18F801848190E0019670
:1032700063E070E00E945C2F84830F900F900F90AA
:10328000DF91CF911F910F910895AF92BF92CF928E
:10329000DF92EF92FF920F931F93CF93DF9300D0B3
:1032A0000F92CDB7DEB7182FF62E042FE22E909195
:1032B000660390FF29C0E92FE695AE2FB0E0A9552F
:1032C000BE4F8C918093FE029E7F923059F59E01F5
:1032D0002F5F3F4F812F0E94EA174B8169818A81BE
:1032E0000E94AF1810936703F0926803009369037C
:1032F000EE2051F06091660370916703809168033E
:10330000909169030E940B180F900F900F90DF911E
:10331000CF911F910F91FF90EF90DF90CF90BF90D2
:10332000AF900895823019F400916903DBCF8630A5
:1033300019F410916703D6CF8930D9F3893191F60A
:10334000E9518E2F8170D82EE695F0E0E750FB4FC3
:10335000A590B490C12CBB2460911701C61618F03B
:103360000E948D18BFCF2C2D30E0A29EC001A39EDD
:10337000900DB29E900D112470E00E94482F812F75
:10338000D11013C0860F40911501420F532F511DCC
:103390009A01220F331F240F351F25593C4F402F10
:1033A0006F2D0E94EA17C394D7CF861BECCFE6E6B9
:1033B000F3E09181282F4381628188E0890F0C948A
:1033C000451981E00C94D719E6E6F3E09181282FA6
:1033D0004381628188EF890F0C94451981E00C9438
:1033E000E419E6E6F3E0628121E1620F08F46FEF91
:1033F000282F438181810C94451981E00C94F119A7
:10340000E6E6F3E0628121E1621B08F460E0282F28
:10341000438181810C94451981E00C94001AE6E601
:10342000F3E0438121E1420F08F44FEF282F62813E
:1034300081810C94451981E00C940F1AE6E6F3E0C3
:10344000438121E1421B08F440E0282F6281818101
:103450000C94451981E00C941E1A20E00C94451937
:10346000EF92FF921F93CF93DF93EC0110E0EE24D5
:10347000EA94F12C60911701161770F00E948D18D4
:103480009A818C8190FF27C08F5F8C83DF91CF91D1
:103490001F91FF90EF90089520911501422F410F49
:1034A0005527551FCA019A01220F331F280F391FB4
:1034B00025593C4F70E0C7010E945C2F962F8C81EC
:1034C0004091690360916803199F800D11240E9447
:1034D000EA171F5FCFCF8150D8CFBF92CF92DF9234
:1034E000EF92FF920F931F93CF93DF93FC018281A2
:1034F0000FEF80FF01E010E0809117011817C0F076
:103500000E948D188091A602013009F051C08111EE
:1035100002C08091170181508093A602DF91CF9164
:103520001F910F91FF90EF90DF90CF90BF90089583
:10353000C0911501C12ED12CCC0DDD2DD11DCE0198
:10354000880F991FC80FD91FC559DC4F19821882DF
:103550001A8234E0E32EF12CB12C8091A6028B0D5F
:10356000813104F18F70082E000C990BC816D90612
:1035700091F4809169038E9DA0018F9D500D1124BF
:1035800055954795559547959E01609168038091A3
:1035900067030E94EA17B00EF1E0EF1AF108E9F6AE
:1035A0001F5FAACF87FFDFCF90911701890FDBCF75
:1035B00090E001966091170170E00E945C2FACCF03
:1035C0000F931F93CF93DF93809115019091160174
:1035D00023E0829FF0011124E559FC4F891740F147
:1035E000C0E0D3E060911701C61740F10E948D182A
:1035F000209111018091A502820F8093A5029091E4
:103600001201920F90931201191654F4082E000C17
:10361000990B409117014150550B841795071CF0E9
:10362000219520931101DF91CF911F910F91089562
:103630001182108212828F5F3396D0CF0C2F10E050
:1036400070E0C8010E945C2F20911501820F482F65
:1036500050E02091A502022E000C330B0217130735
:10366000BCF020911201022E000C330B2017310701
:103670007CF08D9F9001112425593C4F40916903A6
:1036800060916803809167030E94EA17CF5FAACF19
:10369000FA01EE0FFF1FE40FF51FE559FC4F1182F1
:1036A00010821282F3CF8F929F92AF92BF92CF92ED
:1036B000DF92EF92FF920F931F93CF93DF93EC0172
:1036C0004C81042F10E09801D8010E94A72F9B0184
:1036D000AC010E94BD2F4B015C01E0E2F0E0E01B79
:1036E000F10BA5E5B0E0AC019B010E94BD2F6B0181
:1036F0007C019F01DF010E949F2F9B01AC010E9472
:10370000C82F9B01AC01280D391D4A1D5B1DC70147
:10371000B6010E94702FF22E822F90E039E23F1501
:1037200060F143E0249F9001112435952795122FD5
:10373000109500E085E5E82EEF1880911701081735
:1037400058F10E948D189C8181E0992319F09032E4
:1037500019F48FEF8093100180911001890F8C83F1
:10376000DF91CF911F910F91FF90EF90DF90CF905D
:10377000BF90AF909F908F90089525E530E0B901FC
:10378000681B790B9B01220F331F260F371F37FF52
:10379000CCCF2F5F3F4FC9CF8E2D01FD8F2D2091B4
:1037A0001501622F600F7727771F9B01220F331FB0
:1037B000260F371F25593C4F412F609168030E9407
:1037C000EA170F5FBACF0F931F93CF93DF93EC01EC
:1037D00010E000E0909117019017110609F06CF4C9
:1037E0000E948D188C8190E00196817099278C83BE
:1037F000DF91CF911F910F91089520911501A8019C
:10380000420F511D9A01220F331F240F351F2559D6
:103810003C4F4C81609168038091670396959017A7
:10382000110651F04CF0442349F0409169030E9485
:10383000EA170F5F1F4FCECF4423B9F340E0F7CF15
:103840004F925F926F927F928F929F92AF92BF92B0
:10385000CF92DF92EF92FF920F931F93CF93DF935C
:10386000FC016280448081E08483E9EFF3E074909E
:10387000E8E7F4E0E491812C75E0972EF2E0CF2E9A
:10388000DD24D394AA24AA94B12C55245A94E71980
:103890000E2F10E080911701881690F0DF91CF91E4
:1038A0001F910F91FF90EF90DF90CF90BF90AF905E
:1038B0009F908F907F906F905F904F900C948D1899
:1038C000E82CF12C82E0861568F09E9CF0019F9C0C
:1038D000F00D1124E955FD4F80916703808380919D
:1038E00068038183411023C09E9CF0019F9CF00DD2
:1038F0001124E955FD4F1382128220911501C70151
:10390000820F911D9C01220F331F280F391F25594B
:103910003C4F9E9CF0019F9CF00D1124E955FD4FFA
:103920004281618180810E94EA178394B3CF9E9C7B
:10393000E0019F9CD00D1124C955DD4F8B81882358
:10394000E9F081508B83859DC00111246C8170E06A
:103950000E94482FFB01FF27E750FC4F8491E82F7E
:10396000E719E59DC0011124B8010E94482F8091FC
:103970006903689FB00111247A83BFCF0E941C3075
:1039800020916903269521582C9DA0012D9D500D55
:103990001124452F5527841795070CF0AECF82E0F0
:1039A000861588F40E941C30B5010E945C2F888324
:1039B0000E941C30209168032695622F70E00E94BF
:1039C0005C2F280F29839E9CF0019F9CF00D1124F1
:1039D000E955FD4F128280916903893C58F088ECCB
:1039E0009E9CF0019F9CF00D1124E955FD4F8483AE
:1039F000838383CF8431A0F784E1F2CFE6E6F3E05E
:103A000080818E7F808360817181828193810E9419
:103A10000B181092FF022FEF80E792E021508040B8
:103A20009040E1F700C000000C948D18E6E6F3E04A
:103A300080818E7F80831092FF022FEF80E792E0DB
:103A4000215080409040E1F700C000000C948D1898
:103A500060916603669570E04BE050E088E191E08C
:103A60000E942C30892B19F481E08093FF020E9480
:103A70009E269093F8028093F70208959091660332
:103A800090FF35C09170811128C0926090936603B9
:103A9000662351F06091660370916703809168031B
:103AA000909169030E940B1860916603669570E01F
:103AB0004BE050E088E191E00E942C30892BA1F08E
:103AC0001092FF0281E08093FA02409169036091B5
:103AD0006803809167030C942D1A8B3210F0946563
:103AE000D5CF880F982BD2CF0E94281DEBCF0895F9
:103AF000682F90916603969581E0890F8B3208F0CC
:103B000081E00C943E1D81E00C94781D682F90910B
:103B1000660396958FEF890F09F48AE20C943E1D97
:103B200081E00C94861D61E00C943E1DE6E6F3E016
:103B300080818160808386950C94931D80916603BB
:103B400080FD0C94FE1C0C94961D60E00C943E1DB0
:103B50008091FD0281112EC00E948A0F811104C044
:103B60000E942E100E9427180E9407186093660377
:103B70007093670380936803909369036E7F61F489
:103B80000E9427180E9407186093660370936703CA
:103B900080936803909369030E94F8171092FF02C4
:103BA0008091660380FF03C086950E94A51D81E079
:103BB0008093FD020895E6E6F3E0808181608083D2
:103BC00086950C94A51D0F931F93CF93DF9380913F
:103BD000FF02882309F496C08091FE02E0916603FB
:103BE000E695E81BE093F902823091F5F0E0EB50A6
:103BF000FC4FE491CE2FD0E002EE18E18091FA0262
:103C0000882361F01092FA020E949E269093F80297
:103C10008093F7021092FC021092FB020E949E26F3
:103C2000E091F702F091F8028E1B9F0B8F3F9F47A8
:103C300008F068C0EC0FFD1FF093F802E093F70264
:103C400087EF92E0F801DF91CF911F910F910994D6
:103C5000863049F4F0E0EE50FC4FE491CE2FD0E0F6
:103C600006EF18E1CBCF893051F4E695F0E0E15151
:103C7000FC4FE491CE2FD0E000E31AE1BFCF8F30AC
:103C800051F4E695F0E0E451FC4FE491CE2FD0E002
:103C90000DE61AE1B3CF853149F4F0E0E751FC4F6E
:103CA000E491CE2FD0E000EE1AE1A8CFC8E2D0E038
:103CB00003E51BE1883109F4A1CF833239F4E7EE43
:103CC000F3E0C591D49106E019E198CFC4EFD1E0BB
:103CD00003EE1BE1843209F491CFC0EDD7E007EE8B
:103CE00017E1853209F08ACF8E2F63E00E943C2FC6
:103CF000E92FF0E0EC51FC4FE491CE2FD0E000E250
:103D00001CE17CCFDF91CF911F910F910895FA01B3
:103D1000811101C0FB010994CF93DF93C82FD62FE7
:103D20000E9436188C1740F00E9436188D1720F428
:103D3000DF91CF910C94831D8C2FDF91CF910C9448
:103D4000931D1F93CF93DF93EC01FB01128111238D
:103D500009F4C2C00E94A30E8272CC3CFCE5DF07CE
:103D600009F4A0C008F044C0C63CECE5DE0709F445
:103D700085C0F0F4C33C9CE5D90709F475C048F44C
:103D8000C23CDC4509F46CC0812FDF91CF911F91BB
:103D90000895C43C9CE5D90709F46BC04EEE59E187
:103DA00061EE79E1C53CDC4579F70E94871E5AC077
:103DB000C93CFCE5DF0709F46BC068F4C73CECE5DF
:103DC000DE0709F460C04DEF59E16CE07AE1C83CD0
:103DD000DC4559F3D9CFCA3C9CE5D90709F45DC04D
:103DE00049E658E162E578E1CB3CDC45F1F2CCCF25
:103DF000C13DFCE5DF0709F464C098F4CE3C9CE5C6
:103E0000D90709F458C008F452C0CF3CFCE5DF07DD
:103E100009F454C0C03DDC4509F0B6CF6EE089E03E
:103E20001CC0C43D9CE5D90709F451C058F4C23DFB
:103E3000FCE5DF0709F448C0C33DDC4509F0A4CF29
:103E400088E136C0C53D9CE5D90709F443C06AE264
:103E500085E2CD35DD4509F097CF0E948C1E02C06A
:103E60000E949E1D10E090CF40E95DE163E87DE196
:103E70009CCF43E85DE160E97DE197CF41EE59E1F8
:103E80006EEE79E192CF4CE05AE16DEF79E18DCFA2
:103E90004AE25AE16BE17AE188CF4BE15AE16AE20A
:103EA0007AE183CF42E558E169E678E17ECF81E0AF
:103EB0000E94931DD7CF65E082E0CFCF68E086E017
:103EC000CCCF64E18FE0C9CF67E185E1C6CF62E284
:103ED00089E1C3CF83E2ECCF11E056CF519A4BB1C9
:103EE0004D7F5BB15260EFB7F8949B01220F331FF7
:103EF000260F371F280F391F2817390741F4EFBF46
:103F00008FE594E00197F1F700C000000895DC010F
:103F10006D91CD0178E05BB9000000C067FF4BB93F
:103F2000660F000000C000C000C04BB900C07A9509
:103F300091F7E2CF83E290E00E944630813289F42B
:103F400084E290E00E944630823159F485E290E0AC
:103F50000E94463091E0843209F090E0892F817010
:103F6000089580E0FCCFCF93C82F6FEF811161E2FD
:103F700083E290E00E945A306FEFC11162E184E267
:103F800090E00E945A306FEFC11164E285E290E048
:103F9000CF910C945A30089586E290E00E9446300A
:103FA000682F70E090E080E0089586E290E00C9445
:103FB0005A3080E00E94B31F60E070E0CB010E94A5
:103FC000D51F0E94AC220E94982381E00C94B31F5D
:103FD0000E94CB1F0E949A1F811102C00C94D91F0E
:103FE0000895CF93FB01C281CC2309F19C0122519A
:103FF0003F452031310520F582510E94A823C0E0C1
:104000008C2FCF91089581E00E94570A43E062E02F
:1040100081E00E94B304F3CF81E00E94620A43E092
:1040200062E081E00E94B304EBCF82E0F6CF803102
:10403000FFE59F0789F381319F45B9F3C1E0E0CFE8
:104040008031EFE59E07F9F281319F45C9F682E0A4
:10405000DBCF2FEFFC0120830895CF93DF93EC019A
:1040600088818138A9F028F4803871F0DF91CF91F0
:104070000895823881F08338C9F70E9481188983B6
:104080000E9484188A83F2CF0E9487188983EECF1A
:104090000E943618FBCF0E946C18F8CFCF93DF93A5
:1040A000EC0188818138E1F028F4803869F0DF91F3
:1040B000CF910895823811F18338C9F70E9487188B
:1040C000482F6A81898108C0D9810E948418C82F2D
:1040D0000E9481184D2F6C2FDF91CF910C942D1AD7
:1040E00089810E94A51D8981811104C0DF91CF9132
:1040F0000C94161DDF91CF910C94DB1D8981DF910B
:10410000CF910C947E18EF92FF920F931F93CF9351
:10411000DF93EC01062FDC01ED91CD01E150E3319D
:1041200008F0ADC0F0E0E353FF4C0C94922F1982DD
:1041300089E08A83602FCE01DF91CF911F910F918B
:10414000FF90EF900C94A4278981823069F083302E
:1041500071F08130D9F40E94AA260E94982F6A83B8
:104160007B838C839D83E6CF0E94CC1FF6CF7E019C
:1041700010E0812F0E945D13F701928383831F5FFC
:10418000F2E0EF0EF11C1C30A1F7D4CF602FCE016E
:104190000E942920CFCF89818230C1F76A817B813B
:1041A0008C819D810E94982F0E94D51FC3CF4B8187
:1041B0006A8189810E947E229827892798279D837A
:1041C0008C83B8CF2C813D813227232732274B8126
:1041D0006A8189810E949722ADCF0E94AC22AACF2A
:1041E0000E944E20A7CF0E942D20A4CF0E941D1810
:1041F000A1CF0E94412389839DCF0E94432398270A
:10420000892798279A83898395CF6B8170E089816C
:104210009A81AE014C5F5F4F9827892798270E94AB
:10422000462388CF6B8170E089819A81AE014C5F13
:104230005F4F9827892798270E946D237BCF0E9484
:10424000982378CF0E946C22D6CF6B8170E0898151
:104250009A81AE014C5F5F4F9827892798270E946B
:10426000E42268CF6B8170E089819A81AE014C5F56
:104270005F4F9827892798270E940A235BCF8FEFEB
:10428000888358CFCF93DF93EC01FB018281882391
:1042900009F420C1C330FDE5DF07C8F5CA3F9CE53E
:1042A000D90730F49E0122503C452431310598F560
:1042B0000E949D0F9093350380933403C031FCE539
:1042C000DF0709F4E0C008F061C0C8309CE5D907F9
:1042D00009F4CBC088F5C430FCE5DF0709F4B3C0AE
:1042E000E8F4C2309CE5D90709F4A7C080913403F3
:1042F0008260C330DC4509F4A3C0809134039091FF
:1043000035030E94AB0F0E94DE0980E004C0C13675
:10431000EDE5DE0769F2DF91CF91089580913403D6
:104320008061C630FCE5DF0709F48AC008F48FC05D
:1043300080913403806284C0809134038D7FCC30BF
:104340009CE5D90709F47CC070F4809134038C603B
:10435000CA30FCE5DF0709F473C008F48AC0809115
:1043600034038E7F6DC080913403877FCE309CE50F
:10437000D90709F465C0809134038B7FCF30DC45C9
:1043800008F45EC0809134038F7E5AC0CC3FFCE5B8
:10439000DF0709F474C040F5C4319CE5D90709F47E
:1043A0008AC058F4C231FCE5DF0709F474C008F490
:1043B0006EC080913403837F43C0CA3F9CE5D90718
:1043C00009F449C008F04DC0C531DC4509F095CF6E
:1043D0008091340382FB992790F921E0922790FB8A
:1043E00082F990FB83F92CC0C1158DE5D80709F43B
:1043F00058C088F4809135038360CE3FECE5DE073A
:1044000069F1809135038D7FCF3FDC4538F1809194
:1044100035038C7F23C0C2308DE5D80709F458C01E
:1044200008F452C0C136DD4509F067CF90913403DE
:10443000892F8F7E94FF806103C080913403816057
:10444000809334035ACF809134038460F9CF8091F4
:1044500034038860F5CF8091350381608093350304
:104460004CCF809135038260F9CF80913403806412
:10447000E7CF0E94DE09809134038068E1CF80910C
:1044800035038E7FEBCF809134038F7DD9CF809120
:1044900034038F7BD5CF0E94DE09809134038F7760
:1044A000CFCF80913503982F909591708E7F892B77
:1044B00090FB81F9D3CF0E94DE0990913403892FBC
:1044C00097FB87F98058BCCF81E00E94301015CF50
:1044D00080E0FBCF81E01FCF83E0089550E0440FE0
:1044E000551F92E1699F400D511D112498ED899F40
:1044F000400D511D1124CA01879608950F931F93F3
:10450000CF93DF930E946E228C010E944630C82F09
:10451000D0E0DC2FCC27C80101960E9446309E01D6
:10452000282BC901DF91CF911F910F9108950F930F
:104530001F93CF93DF93122F032F0E946E22EC0163
:10454000602F0E945A30612FCE010196DF91CF91EA
:104550001F910F910C945A30AF92BF92CF92DF927D
:10456000EF92FF921F93CF93DF938CEAC82E80E0E7
:10457000D82ED0E07601C0E014C0F5012591349129
:10458000412F6C2F8D2F0E94972282E0A80EB11C24
:104590001F5F193091F782E1E80EF11CCF5FCC303C
:1045A00019F0570110E0E9CFDF5F88EDC80ED11C8C
:1045B000D33001F7DF91CF911F91FF90EF90DF9003
:1045C000CF90BF90AF900895EF92FF920F931F93FB
:1045D000CF93DF93EC018A017C01E60EF71ECE013A
:1045E0008796CE15DF0539F4DF91CF911F910F919A
:1045F000FF90EF900895C83822E0D20740F40E945F
:104600004630F80180830F5F1F4F2196E8CFF801F5
:104610001082F9CFCF92DF92EF92FF920F931F9308
:10462000CF93DF937C016A018C01060F171FEC0109
:10463000CE018796C017D10749F4DF91CF911F9122
:104640000F91FF90EF90DF90CF900895C83822E04F
:10465000D20740F4FE01EE19FF09EC0DFD1D60814B
:104660000E945A302196E4CF462F833038F47C30B4
:1046700028F4693018F4672F0C947E2290E080E0D3
:10468000089580E1089581E591E00895EF92FF9209
:104690000F931F93CF93DF93EC018A017C01E60E09
:1046A000F71ECE0181559D4FCE15DF0539F4DF9100
:1046B000CF911F910F91FF90EF900895C13521E0A8
:1046C000D20740F40E944630F80180830F5F1F4FED
:1046D0002196E7CFF8011082F9CFCF92DF92EF92C7
:1046E000FF920F931F93CF93DF937C016A018C019C
:1046F000060F171FEC01CE0181559D4FC017D10742
:1047000049F4DF91CF911F910F91FF90EF90DF90CF
:10471000CF900895C13521E0D20740F4FE01EE1993
:10472000FF09EC0DFD1D60810E945A302196E3CFF8
:10473000CF93DF93CFEAD2E060E0CE010E945A30FF
:104740002196C11584E0D807B9F7DF91CF9108957C
:10475000DF92EF92FF920F931F93CF93DF9300D0DE
:1047600000D0CDB7DEB7F82E8FE08F1540F08FEF79
:1047700093E00E9446300FEA12E08823C1F00F90C8
:104780000F900F900F90DF91CF911F910F91FF909D
:10479000EF90DF900895011584E0180781F3C801B8
:1047A0000E944630811101C0FA940F5F1F4FF11033
:1047B000F2CF19821A821B821C82DD24D3947801E5
:1047C0008FEFE81AF80AC8010E94463089831A82DE
:1047D0008823A9F29FEF980F933078F48A83D982C7
:1047E0000E5F1F4FC7010E9446308B83882339F22A
:1047F000CE0101960E940D06E2CF8701F9CFCF933B
:10480000DF93EB0186319C4511F50E94A30E9A813E
:10481000992399F08A7A91E009F490E0909300034B
:10482000811109C089E20E947E0E0E94F30E80E091
:10483000DF91CF91089585E3F6CF80910003811138
:1048400004C089E20E94850EF0CF85E3FBCF81E0B2
:10485000EFCF0F931F93CF93DF93C42FD22FFC0181
:1048600082818823C9F0409303030E949E2690937F
:1048700002038093010380E28C0F883008F050C05F
:10488000C77081E001C0880FCA95EAF7DF91CF9128
:104890001F910F910C946A0710910303141335C0F4
:1048A00080910103909102030E94B626883C9105F5
:1048B00060F5C0E2CD0F1D17B9F080E2810F88309E
:1048C00040F4177081E001C0880F1A95EAF70E9442
:1048D0007107C83048F481E09D2F977001C0880FA0
:1048E0009A95EAF70E946A07802F0E946207C830F3
:1048F000B8F4D77081E001C0880FDA95EAF7DF914C
:10490000CF911F910F910C94710780E28C0F88302A
:1049100038F4C77081E001C0880FCA95EAF7EFCF7D
:10492000DF91CF911F910F9108950F939C01CB01BF
:10493000233F4CE5340759F1A8F4283DFCE53F0737
:1049400001F1293D4CE53407D1F1273D3C4591F477
:1049500006E221EE41EE67ED7CE50E94292480E02D
:104960000F910895253FFCE53F07E9F0B0F0263FA1
:104970003C45F9F0FC018281882339F11092030350
:10498000EFCF07E225EE45EE68ED7CE5E6CF06E2E7
:1049900021EE40EE63EF7CE5E0CF07E225EE44EE4A
:1049A00064EF7CE5DACF06E221EE42EE65EF7CE5CE
:1049B000D4CF07E225EE46EE66EF7CE5CECF08E2E7
:1049C00021E045EE69ED7CE5C8CF81E0C9CF909349
:1049D000E7018093E601089590930903809308030B
:1049E0000895E0910803F0910903309721F00190B8
:1049F000F081E02D099480E00895E0910803F091A2
:104A00000903309799F020912F01222359F020912A
:104A1000340327FF07C0DC012C9111962C931197CA
:104A200026E02C930280F381E02D09940895E09113
:104A30000803F0910903309739F022E0DC012C9350
:104A40000480F581E02D09940895209106033091AA
:104A500007032817390771F0909307038093060323
:104A6000E0910803F0910903309721F00680F78167
:104A7000E02D09940895209104033091050328172F
:104A8000390771F09093050380930403E0910803C4
:104A9000F0910903309721F00084F185E02D09940D
:104AA0000895FC01329680912F01882321F0809196
:104AB00034039EE187FF96E080E0915008F408956A
:104AC00021912223D1F38F5FF8CF662301F120914A
:104AD0002F012223F1F02091340327FF1AC0462F23
:104AE0004695469546954E3190F4677021E030E04A
:104AF00002C0220F331F6A95E2F7840F911DFC015B
:104B0000828190E02823392381E0232B69F480E01F
:104B10000895FC01329608962191261721F0E81796
:104B2000F907D1F7F4CF81E008959C01FC0132969A
:104B30009FEF80E04191461751F09F3F19F44111DA
:104B400001C0982F8F5F8630A9F79F3F09F4089521
:104B5000290F311D97FD3A95F90162830895FC01F3
:104B6000329608962191261303C0DF0111971C92FB
:104B7000E817F907B9F70895E62FE695E695E69563
:104B8000EE3168F4E80FF92FF11D677021E030E095
:104B900001C0220F6A95EAF78281822B82830895F1
:104BA000E62FE695E695E695EE3170F4E80FF92FDD
:104BB000F11D677021E030E001C0220F6A95EAF72D
:104BC0002095828128232283089520912F0122237A
:104BD00029F02091340327FD0C94BC250C949525D5
:104BE00020912F01222329F02091340327FD0C94DA
:104BF000D0250C94AF25FC01329680912F0188239B
:104C000051F08091340387FF06C08EE1DF011D92D1
:104C10008A95E9F7089586E0F9CF08950C940D265A
:104C2000811105C081E080930A030C940E2682E076
:104C3000FACF83E080930A030C940E260C9410267E
:104C400081E080930A030C940E260C94202608958C
:104C50008091A303843031F10E94C40410920B03AD
:104C600088E190E020E40FB6F894A8958093600066
:104C70000FBE2093600083B7817F846083BF83B7BA
:104C8000816083BF7894889583B78E7F83BF0FB68A
:104C9000F894A895809160008861809360001092DC
:104CA00060000FBE089508950895CF930E94532683
:104CB0000E9426140E945426C0E08C2F0E945D138F
:104CC000892B31F4CF5FCC30C1F780E0CF910895CC
:104CD00081E0FCCF0E94DE090C9439051F921FB6BB
:104CE0001F9211248F939F93AF93BF9380910B03D7
:104CF000811113C080919B0390919C03A0919D030F
:104D0000B0919E034196A11DB11D80939B0390938A
:104D10009C03A0939D03B0939E03BF91AF919F917D
:104D20008F911F901FBE1F90189582E084BD93E065
:104D300095BD9AEF97BD80936E0008952FB7F894B4
:104D400080919B0390919C03A0919D03B0919E0341
:104D50002FBF08952FB7F89460919B0370919C0327
:104D600080919D0390919E032FBF08959C014FB7A2
:104D7000F89480919B0390919C03A0919D03B09126
:104D80009E034FBF821B930B089578941F921FB60A
:104D90001F9211248F939F93AF93BF9380919B0396
:104DA00090919C03A0919D03B0919E030196A11D3B
:104DB000B11D80939B0390939C03A0939D03B0939C
:104DC0009E03BF91AF919F918F911F901FBE1F9027
:104DD000189581E08093E00080E28093D8001092E3
:104DE000C9008FE19EE40197F1F700C0000087E061
:104DF00090EBDC018093AC039093AD03A093AE03E2
:104E0000B093AF0388E19CE00FB6F894A895809327
:104E100060000FBE90936000FFCF80913203089531
:104E200008959C0184E08093E9009FEF8091E80061
:104E3000915085FD06C085ED8A95F1F7000091112E
:104E4000F5CF8091E80085FF0CC050E040E066E0BF
:104E500070E0C9010E945D2A8091E8008E778093FE
:104E6000E8000895CF93DF93EC0180912F01882310
:104E7000B1F18091340387FF32C060E284E0809317
:104E8000E9008FEF9091E800815095FD06C095ED07
:104E90009A95F1F700008111F5CF8091E80085FF28
:104EA0001BC080912F0170E050E040E0811104C0F0
:104EB00050E040E068E070E0CE010E945D2A809101
:104EC000E8008E778093E80080E2FE01A2E1B3E083
:104ED00001900D928A95E1F7DF91CF91089568E0F6
:104EE00081E0CDCF80930E037093100360930F0386
:104EF0008091A3038430F9F48093E9008FEF9091BF
:104F0000E800815095FD06C095ED9A95F1F70000F7
:104F10008111F5CF8091E80085FF0DC050E040E0A1
:104F200063E070E08EE093E00E945D2A8091E800EB
:104F30008E778093E8000895BC0184E00C9472277A
:104F4000BC0183E00C947227CF93FC01603221F501
:104F50008091A303843001F5C091E900CF702091C6
:104F6000EC00922F917020FD90E8C92B82E0809395
:104F7000E9008091E80080FF0CC050E040E060E272
:104F800070E0CF010E945D2A8091E8008E778093C7
:104F9000E800CF70C093E900CF9108958091A203FB
:104FA000811109C00E943C2C0E94992C8091E20042
:104FB00084608093E20008951092A20308950C94F7
:104FC000202660919F0381E0611101C080E00C9474
:104FD00019269091A30381E0943009F080E060915C
:104FE0009F030C941E2620910D032F5F822F62E3F6
:104FF0000E943C2F992319F020930D0308951092DD
:105000000D03809111038823F1F08091A303843074
:10501000C1F49091E9009F702091EC00822F817083
:1050200020FD80E8892B95E09093E9009091EB00BA
:1050300090FF04C09091EE0097FD08C08F708093A0
:10504000E9001092110308951092F1009091E80088
:1050500095FDFACF9091E80090FFF0CF9091E80095
:105060009E779093E800EACF42E061EC81E00E94F5
:10507000B82B42E261EC84E00E94B82B42E261EC82
:1050800082E00E94B82B42E260EC83E00E94B82BE1
:1050900042E261EC85E00E94B82B9091A30381E08D
:1050A000943009F080E060919F030C941026809169
:1050B000A503833009F462C030F48130D9F1823025
:1050C00009F49EC008958A3009F48AC08B3009F42F
:1050D00070C0893009F051C08091A403813209F079
:1050E0004CC08091A8039091A903009719F00297F2
:1050F00009F043C08091E800877F8093E8008091A9
:10510000E80082FF36C09091F3008091F200029790
:1051100031F48091F100813011F0863021F48091DA
:10512000F100809332038091E8008B778093E80050
:105130000C94EC2B8091A403813AF9F48091E8005F
:10514000877F8093E8008091A8039091A903892B21
:1051500061F460E282E193E070E00E94FB2A8091BA
:10516000E8008B778093E800089560E090E080E0AD
:10517000F3CF8091A3038111C2CF08958091A4033E
:10518000813AD9F78091A8039091A903892BA9F7B7
:105190008091E800877F8093E8008091E80080FF9D
:1051A000FCCF80912F018093F1008091E8008E77F1
:1051B000BDCF8091A403813201F78091A803909123
:1051C000A903892BD1F68091E800877F8093E800BE
:1051D0000E94EC2B8091A60380932F010C94DE0992
:1051E0008091A403813249F68091E800877F809303
:1051F000E8000E94EC2B8091A7038093330308956D
:105200008091A403813A09F0B8CF8091E800877FAC
:105210008093E8008091E80080FFFCCF8091330309
:10522000C2CF9FB7F894109211039FBF9091A30330
:10523000943009F048C02091E9002F703091EC00C3
:10524000932F917030FD90E8922B25E02093E90098
:105250002091EB0020FF34C02091EE0027FF30C0EA
:1052600020910C03222321F02091E80025FF28C083
:1052700010920C0326E03091E80035FF14C08093B3
:10528000F1008091E80085FD27C08091E80080FF53
:10529000FCCF8091E8008E778093E8009F70909318
:1052A000E90080E008953091A303343049F430914F
:1052B000EB0035FD05C0215041F481E080930C03E3
:1052C0009F709093E9008FEF0895EFE9FFE0319729
:1052D000F1F700C00000CFCF8FB7F89421E0209302
:1052E00011038FBFDBCF84B7877F84BF0FB6F894DD
:1052F000A8958091600088618093600010926000A2
:105300000FBE80E890E00FB6F89480936100909310
:1053100061000FBE0C9425260E943C2C0E94992C03
:10532000E2EEF0E080818460808378940C94212FF9
:1053300083E291E00C94EC248091A3038530A9F4DE
:105340008091A303853011F00C946A260E942826D0
:105350008091A1038823A1F30E945526882381F31D
:105360000E94472A0E94DE09EBCF0895CF93DF9376
:10537000CDB7DEB7A0970FB6F894DEBF0FBECDBF96
:105380008091A303843009F583E08093E900809144
:10539000E80082FF1AC08091E80090E085FF09C014
:1053A00050E040E060E270E0CE0101960E94AC2A3D
:1053B00091E08091E8008B778093E800992329F0B1
:1053C00060E2CE0101960E948320A0960FB6F89469
:1053D000DEBF0FBECDBFDF91CF9108950C94F029B1
:1053E000292F33272330310521F168F4213031058D
:1053F00009F443C02230310509F444C090E080E054
:1054000030E020E026C02132310551F12232310551
:10541000A9F76430710590F7FB01EE0FFF1FEA5208
:10542000FE4F208131816E527E4FFB01808190E0E2
:1054300010C099278130910581F0009729F00297DB
:10544000E9F6EEEFF5E002C0EAE2F6E0849190E0E2
:105450009F01FA01318320830895E2E1F6E0F6CF5F
:105460006430710558F6660F771FFB01E252FE4F5C
:105470002081318189E090E0ECCF82E190E029EA5F
:1054800036E0E7CF8BE790E02EE236E0E2CF80E136
:1054900089BD82E189BD09B400FEFDCF8091D800AD
:1054A0008F7D8093D8008091E00082608093E0003F
:1054B0008091E00081FDFCCF0895AF92BF92CF9222
:1054C000DF92FF920F931F93CF93DF936C01EB0159
:1054D0008A010E940B2CF82E811123C001151105A1
:1054E00039F0F80180819181C81BD90BC80ED91EF3
:1054F000B12CA12C2097A9F08091E80085FD22C055
:105500008091E8008E778093E80001151105A1F0E5
:10551000F80180819181A80EB91EB182A08285E038
:10552000F82E8F2DDF91CF911F910F91FF90DF907B
:10553000CF90BF90AF9008950E940B2C8823D1F29A
:10554000F82EEFCFF60181916F018093F100219742
:10555000FFEFAF1ABF0ACECFAF92BF92CF92DF92CA
:10556000FF920F931F93CF93DF936C01EB018A019E
:105570000E940B2CF82E811123C00115110539F062
:10558000F80180819181C81BD90BC80ED91EB12C9E
:10559000A12C2097A9F08091E80085FD22C0809180
:1055A000E8008B778093E80001151105A1F0F80160
:1055B00080819181A80EB91EB182A08285E0F82E6B
:1055C0008F2DDF91CF911F910F91FF90DF90CF90A2
:1055D000BF90AF9008950E940B2C8823D1F2F82E33
:1055E000EFCF8091F100F60181936F012197FFEFDA
:1055F000AF1ABF0ACECFFC018091AA039091AB03F2
:1056000086179707A0F06115710529F49091E800BD
:105610009E779093E80090E06115710551F4911127
:1056200008C08091E80082FF34C080E00895BC018A
:10563000F2CF8091A3038823C1F18530C1F180911D
:10564000E80083FD30C08091E80082FDEACF8091C0
:10565000E80080FFE1CF8091F3002091F200382F25
:105660006115710519F02830310558F091E02830A6
:10567000310509F090E02091E8002E772093E800B2
:10568000CBCF81918093F100615071092F5F3F4F23
:10569000E7CF8091A303882341F0853041F08091CA
:1056A000E80083FFBECF81E0089582E0089583E0A3
:1056B0000895FC018091AA039091AB038617970788
:1056C000A0F06115710529F48091E8008E77809330
:1056D000E80090E06115710551F4911108C08091C6
:1056E000E80082FF35C080E00895BC01F2CF8091D0
:1056F000A3038823C9F18530C9F18091E80083FDB7
:1057000031C08091E80082FDEACF8091E80080FFFF
:10571000E1CF8091F3002091F200382F61157105DF
:1057200019F02830310558F091E02830310509F0A2
:1057300090E08091E8008E778093E800CBCF849151
:105740008093F1003196615071092F5F3F4FE6CF92
:105750008091A303882341F0853041F08091E800D7
:1057600083FFBDCF81E0089582E0089583E008952E
:10577000982F973028F08F708093E90081E008958A
:105780009093E900242F762F50E0981731F0709114
:10579000EC002091ED005091F00021FD02C09F5FD0
:1057A000E8CF3091EB003E7F3093EB003091ED007D
:1057B0003D7F3093ED003091EB0031603093EB0092
:1057C0007093EC002093ED005093F0002091EE00D8
:1057D00027FDE5CF80E008958091A40387FF13C0E3
:1057E0008091E80082FF06C08091E8008B7780936B
:1057F000E80004C08091A3038111F2CF0895809145
:10580000A3038823D9F38091E80080FFF8CF80912B
:10581000E8008E77ECCF2091E4003091E50095E62A
:10582000A9012091EC00822F817020FF06C0809199
:10583000E80080FF06C080E008952091E80022FD86
:105840001AC08091A303882389F0853089F0809164
:10585000EB0085FD0FC02091E4003091E500421778
:105860005307F9F29150E1F684E0089582E008953B
:1058700083E0089581E008950E94AA2C0E94B22C32
:10588000E0EEF0E0808181608083E8EDF0E08081EF
:105890008F77808319BCA7EDB0E08C918E7F8C93BD
:1058A00080818F7E80831092A20308950F931F93AF
:1058B000CF93DF930E94AA2C0E94B22CC8EDD0E0B7
:1058C00088818F77888388818068888388818F7DAD
:1058D000888319BC1092A30310929F031092A10316
:1058E0001092A00300EE10E0F80180818B7F80838E
:1058F00088818160888342E060E080E00E94B82B6C
:10590000E1EEF0E080818E7F8083E2EEF0E0808146
:1059100081608083808188608083F80180818E7FB0
:105920008083888180618883DF91CF911F910F915F
:105930000895E8EDF0E080818F7E8083E7EDF0E070
:1059400080818160808384E082BF81E08093A203B4
:105950000C94562CE8EDF0E080818E7F80831092CD
:10596000E20008951092DA001092E10008951F926B
:105970000F920FB60F9211242F933F934F935F9383
:105980006F937F938F939F93AF93BF93EF93FF9307
:105990008091E10082FF0BC08091E20082FF07C08E
:1059A0008091E1008B7F8093E1000E94F32780913A
:1059B000DA0080FF19C08091D80080FF15C0809167
:1059C000DA008E7F8093DA008091D90080FF96C044
:1059D00080E189BD82E189BD09B400FEFDCF81E08F
:1059E0008093A3030E94CE278091E10080FF19C01D
:1059F0008091E20080FF15C08091E2008E7F80934D
:105A0000E2008091E20080618093E2008091D80002
:105A100080628093D80019BC85E08093A3030E9424
:105A2000E1278091E10084FF2BC08091E20084FF98
:105A300027C080E189BD82E189BD89B5982F917029
:105A400080FFFBCF8091D8008F7D8093D80080911C
:105A5000E1008F7E8093E1008091E2008F7E809351
:105A6000E2008091E20081608093E20080919F03D8
:105A7000882309F449C084E08093A3030E94E927A6
:105A80008091E10083FF29C08091E20083FF25C05F
:105A90008091E100877F8093E10082E08093A303FF
:105AA00010929F038091E1008E7F8093E1008091AE
:105AB000E2008E7F8093E2008091E200806180931B
:105AC000E20042E060E080E00E94B82B8091F000AC
:105AD00088608093F0000E94DF27FF91EF91BF91D3
